:100DD000033953455403364F4646062E4F46464F79
:060DE000464602294F4EB9
:03002B00020DB70C
:100DB700C0E0C2CF052D0527E5277002052675CAB5
:090DC7005375CB34D2CAD0E032DE
:040C93007F307E75BB
:100C9700C28DC28CE4FDFCC3ED9FEC9E503AE52D5E
:100CA700B42821E4F52D0528E528D3943B40150504
:100CB7002CE52CD3943B400C0525E525D394174010
:100CC70003E4F525758CFF758A2ED28C308DFDC215
:080CD7008D0DBD00010C80BF72
:010CDF0022F2
:0C0D94007F287E00120C97C20175518070
:100DA000A20192B5C2B6D2B78551A07F017E0012D2
:070DB0000C97C2B7020C977B
:0608DE00E4F52D120D6F80
:0408E400E524706532
:1008E800E52575F00A842430F548E52575F00A8475
:1008F800E5F02430F549754A3AE52C75F00A842468
:1009080030F54BE52C75F00A84E5F02430F54C758C
:100918004D3AE52875F00A842430F54EE52875F03F
:100928000A84E5F02430F54F120D9BE4F550D2010E
:1009380074482550F8E6F551120DA00550E550C34E
:05094800940840EA22C2
:10094D00E53D75F00A842430F548E53D75F00A84DF
:10095D00E5F02430F549754A3AE52375F00A84240B
:10096D0030F54BE52375F00A84E5F02430F54C7530
:10097D004D3AE52875F00A842430F54EE52875F0DA
:10098D000A84E5F02430F54F120D9BE4F550D201A9
:10099D0074482550F8E6F551120DA00550E550C3E9
:0409AD00940840EA80
:0109B1002223
:100D29007FC87E00120C97C201755130120DA0C206
:100D390001755130120DA0C201755137120DA0C2B3
:100D49000175510F120DA0C201755106120DA0C2F5
:100D590001755101120DA0C201E4F551120DA07FD8
:060D6900327E00020C972F
:100D6F000528E528D3943B401BE4F528052CE52CFA
:100D7F00D3943B400FE4F52C0525E525D39417407C
:050D8F0003E4F525223C
:03000300020C35B7
:100C3500C0E0C0F0C0D075D008C2A87F327E0012D7
:100C45000C9720B240752B0075260075270075217D
:100C550000E52B7030E52DD39427400B752D00D280
:100C6500CA120D6F1208E4D3E5279463E5269400B4
:100C75004008752102752B0180D730B2D4752B0140
:0E0C850075210180CCD2A8D0D0D0F0D0E032C2
:10080000E4F524C201755101120DA0120D94E4F516
:100810003CD2017439253CF8E6F551120DA0053C97
:10082000E53CC3940340EA120C93E4F521C2017540
:100830005101120DA0120D941208E4E521C3940297
:100840005064E52D94274012E4F52D0528E528D3C2
:10085000943B4003E4F5281208E4E521B401DC05EB
:100860002CE52CD3943B4003E4F52C1208E4E4F58A
:100870002180C8E521C39402505BE52D94274012E6
:10088000E4F52D0528E528D3943B4003E4F5281230
:1008900008E4E521B401DC0525E525D394174003E0
:1008A000E4F5251208E4E4F52180C8E521C39402AB
:1008B0005028E52D94274012E4F52D0528E528D38E
:1008C000943B4003E4F5281208E4E521B401DCE49C
:0E08D000F5281208E4E4F52180D1E4F5212298
:100AD200E4F521C201755101120DA0120D94E4F545
:100AE2003CD2017429253CF8E6F551120DA0053CD3
:100AF200E53CC3940240EA120C937524011208E407
:100B0200E521C394025046E52D942740031208DEE6
:100B1200E521B401EB0523E523D3943B4003E4F53F
:100B2200231208E4E4F52180D7E521C39402502280
:100B3200E52D942740031208DEE521B401EB053DC3
:100B4200E53DD394174003E4F53D1208E4E4F521B2
:0B0B520080D7E4F521753401F5242262
:100B5D00C201755101120DA0120D94E4F53CD201A4
:100B6D007436253CF8E6F551120DA0053CE53CC365
:100B7D00940340EA120C93C201755101120DA0129B
:100B8D000D947524011208E4E4F522F521E5227097
:100B9D001CE52DD3942740031208DEE521B4010393
:100BAD00752201E521B402E575220280E0E522B44B
:0D0BBD000203120AD2E4F522F521F52422EC
:100CE000E53D65257042E523652C703C5389CF4373
:100CF0008920C28FC28E758D6BD28EE521701EF554
:100D000035308FFDE52DD3942740031208DEC28FC6
:100D10000535E535C3941040E8B2B380DEE4F53420
:090D2000F5215389CC438911220D
:1009B200C201755101120DA0120D94E4F53CD20151
:1009C2007429253CF8E6F551120DA0053CE53CC31F
:1009D200940240EA120C93E4F522F521752401E514
:1009E20022701FE52DD3942740061208DE120CE078
:1009F200E521B40103752201E521B402E275220268
:100A020080DDE52264027034F534C20175510112B1
:100A12000DA0120D94E4F53CD201742E253CF8E6AB
:100A2200F551120DA0053CE53CC3940640EA120CB8
:100A320093C201755101120DA0120D94E4F524F533
:040A420022F5212256
:100BCA00E4F53DF523F534F521F526F5275389CCCF
:100BDA00438911F58DF58BC28FC28EC28DC28C539B
:100BEA00C8FC75CA5375CB34120D29D2B2D2AFD212
:100BFA00ADD2A8D288D2BDD2A8E52DC39428501E62
:100C0A00D2CAE521B4010DE534B401051209B28056
:100C1A0003120B5DE521B402E012080080DB120822
:0B0C2A00DEE534B401D1120CE080CCF8
:03000000020A46AB
:0C0A4600787FE4F6D8FD758151020A8D1E
:100A5200020BCAE493A3F8E493A34003F68001F2E5
:100A620008DFF48029E493A3F85407240CC8C333A5
:100A7200C4540F4420C8834004F456800146F6DF74
:100A8200E4800B0102040810204080900DD0E47E27
:100A9200019360BCA3FF543F30E509541FFEE49369
:100AA200A360010ECF54C025E060A840B8E493A330
:100AB200FAE493A3F8E493A3C8C582C8CAC583CA5B
:100AC200F0A3C8C582C8CAC583CADFE9DEE780BE13
:010DE600000C
:00000001FF
